:100000000C940A090C9425090C9425090C942509D3
:100010000C9425090C9425090C9425090C942509A8
:100020000C9425090C9425090C94DD0E0C943C0FBE
:100030000C9425090C9425090C9425090C94250988
:100040000C9425090C9425090C9425090C94250978
:100050000C9425090C9425090C9425090C94250968
:100060000C9425090C9425090C9425090C94250958
:100070000C9425090C9425090C9425090C94250948
:100080000C9425090C9425090C9425090C94250938
:100090000C9425090C9425090C9425090C94250928
:1000A0000C9425090C9425090C94250900E32C2CAB
:1000B000000000000000E3E200003534E2504F0091
:1000C00000000052512F3029E11D1B0619052D2E6D
:1000D0001110363738E5E0041607090A00000B0D49
:1000E0000E0F33282B141A0815172D331C180C1259
:1000F0001331001E1F202122000023242526272A39
:1001000000000000000000000000000000000000EF
:1001100000000000000000000000000000000000DF
:1001200000000000000000000000000000000000CF
:1001300000000000000000000000000000000000BF
:1003F000000000000000350E350E350E0000000034
:1004000000004D0E00000000350E350E000000000B
:10041000350E350E350E350E350E0000000000008D
:100420000000350E350E350E350E350E350E350EF7
:10043000350E350E350E350E350E350E350E350EA4
:10044000350E350E350E350E350E350E350E350E94
:10045000350E350E00000000350E350E350E350E0A
:10046000350E350E350E350E350E350E350E350E74
:100470007F0E7F0E350E350E350E350E350E350ED0
:100480000000350E350E350E350E350E000000001D
:10049000350E350E350E350E350E350E00000000CA
:1004A000000000000000000000000000000000004C
:1004B000000000000000000000000000000000003C
:1004C000000000000000000000000000000000002C
:1004D000000000000000000000000000000000001C
:100A8000000000000000350E350E350E000000009D
:100A90000000000000000000350E350E00000000D0
:100AA000350E350E350E350E350E000000000000F7
:100AB0000000350E350E350E350E350E350E350E61
:100AC000350E350E350E350E350E350E350E350E0E
:100AD000350E350E350E350E350E350E350E350EFE
:100AE000350E350E00000000350E350E350E350E74
:100AF000350E350E350E350E350E350E350E350EDE
:100B00007F0E7F0E350E350E350E350E350E350E39
:100B10000000350E350E350E350E350E0000000086
:100B2000350E350E350E350E350E350E0000000033
:100B300000000000000000000000000000000000B5
:100B400000000000000000000000000000000000A5
:100B50000000000000000000000000000000000095
:100B60000000000000000000000000000000000085
:1011100000000000000100004B1112000200005D01
:101120001122002200007F113F002100006F1109F1
:1011300000030000BE110401030904C211180203D8
:101140000904DC1136000001C10600120100020092
:10115000000020501D286000010102000109022248
:1011600000010100C032090400000103010100096F
:101170002111010001223F0007058303080001053A
:10118000010906A10175019508050719E029E71570
:1011900000250181029501750881039505750105FA
:1011A00008190129059102950175039103950675AA
:1011B00008150025680507190029688100C0040387
:1011C0000904180375006E00730070006500630069
:1011D0006900660069006500640000003603450090
:1011E000720067006F0044006F0078002000650007
:1011F000720067006F006E006F006D006900630091
:1012000020006B006500790062006F0061007200D1
:101210006400000011241FBECFEFDAE0DEBFCDBFB7
:1012200011E0A0E0B1E0ECE6F1E202C005900D9221
:10123000A630B107D9F712E0A6E0B1E001C01D92D7
:10124000AE33B107E1F747D08FC70C94000030915F
:101250003A0220910F029091100280913D023323B7
:1012600091F0ECE12E9FF001112428EA929F900169
:101270001124E20FF31F90E0880F991FE80FF91F68
:10128000EC50FC4F11C0ECE12E9FF001112428EA34
:10129000929F90011124E20FF31F90E0880F991F95
:1012A000E80FF91FEC57F54F85919491E82FF92F2E
:1012B000309709F009950895E0910601E81748F084
:1012C000F0E0E81BF109EE0FFF1FEF5EFD4F80819C
:1012D000089580E008950F931F93CF93DF93FFD07D
:1012E0008CE090E0909389008093880090938B002D
:1012F00080938A0090938D0080938C00259A269A83
:10130000279A07D51DD58823E9F38FE790E09093BE
:101310008900809388002FE732E440E1215030407B
:101320004040E1F700C0000090938B0080938A005A
:101330002FE732E440E1215030404040E1F700C067
:10134000000090938D0080938C002FE732E440E101
:10135000215030404040E1F700C000002598269819
:101360002798909389008093880090938B008093B6
:101370008A0090938D0080938C008091020190915F
:10138000030120910001309101013093030120936A
:1013900002019093010180930001ADD01092BA0137
:1013A00078C010923B026BC0C02FD0E0E0910001EA
:1013B000F0910101812F90E09C01220F331FC901A0
:1013C00043E0880F991F4A95E1F7821B930B8C0F1E
:1013D0009D1FE80FF91F408140933A02E0910201FE
:1013E000F0910301812F90E09C01220F331FC9016E
:1013F000A3E0880F991FAA95E1F7821B930B8C0F2E
:101400009D1FE80FF91F808180933902481791F1E1
:101410004423B1F080E050DF80931002212F30E0B0
:10142000220F331FF90173E0EE0FFF1F7A95E1F7EA
:10143000E21BF30BEC0FFD1FE554FE4F808313C03E
:10144000812F90E0880F991FFC0153E0EE0FFF1FE2
:101450005A95E1F7E81BF90BEC0FFD1FE554FE4F21
:1014600080818093100210930F0200933D0210922E
:101470003C02EDDE80913B028F5F80933B02009146
:101480003B021091BA010E3008F48ECF1F5F10930B
:10149000BA018091BA01863008F483CF54D48FE129
:1014A0009EE40197F1F700C000008091B60180FF33
:1014B00002C0259A01C025988091B60181FF02C023
:1014C000269A01C026988091B60182FF02C0279A11
:1014D00001C027988091B6018091B6014ECFC1D04E
:1014E000882329F41AD0882321F082E0089581E02E
:1014F000089580E00895CF93DF93EC017BD188239A
:1015000031F4CE0135D0882321F082E003C081E0A0
:1015100001C080E0DF91CF9108951F934FD380E405
:101520006ED3182F882301F580E069D380E867D354
:101530008FEF65D35CD342D380E461D3182F882327
:1015400099F48CE05CD380E85AD38FEF58D34FD313
:1015500035D380E454D3182F882331F484E14FD35A
:101560008FEF4DD38FEF4BD342D3812F1F9108952F
:101570009F92AF92BF92CF92DF92EF92FF920F9322
:101580001F93DF93CF930F92CDB7DEB77C01C5DFFA
:10159000982E882371F0F70186E010821182128262
:1015A000138214821582168281503E968823A9F7F1
:1015B0004AC000E010E081E0C82ED12C5E01089402
:1015C000A11CB11CFBD280E41AD382E118D3C6015E
:1015D000002E02C0880F991F0A94E2F780950FD35E
:1015E00006D3ECD280E40BD383E109D3E7D281E4C4
:1015F00006D3C50124D3FBD2498150E0F701E00FA7
:10160000F11F25E030E0CA01022E02C095958795B2
:101610000A94E2F761E080FD60E060832150304091
:101620003E968FEF2F3F380771F70F5F1F4F073040
:10163000110509F0C7CFC2D280E4E1D282E1DFD246
:101640008FEFDDD2D4D2892D0F90CF91DF911F91F2
:101650000F91FF90EF90DF90CF90BF90AF909F9051
:101660000895E1E6F0E080E88083108256985E9865
:1016700024982C9825982698279889EA80938000AA
:1016800089E08093810091D23F9885E08A95F1F7B7
:101690000000579885E08A95F1F70000549885E09E
:1016A0008A95F1F70000559885E08A95F1F70000DA
:1016B0006E9885E08A95F1F70000479A85E08A9553
:1016C000F1F700005F9A85E08A95F1F700005C9AD7
:1016D00085E08A95F1F700005D9A85E08A95F1F73B
:1016E0000000769A85E08A95F1F70000879885E0FA
:1016F0008A95F1F70000869885E08A95F1F7000059
:10170000859885E08A95F1F70000849885E08A95B0
:10171000F1F70000819885E08A95F1F70000809844
:1017200085E08A95F1F70000209885E08A95F1F729
:101730000000219885E08A95F1F70000229885E065
:101740008A95F1F70000239885E08A95F1F700006B
:10175000529885E08A95F1F70000539885E08A95C4
:10176000F1F700003E9885E08A95F1F700008F9A26
:1017700085E08A95F1F700008E9A85E08A95F1F769
:1017800000008D9A85E08A95F1F700008C9A85E03B
:101790008A95F1F70000899A85E08A95F1F70000B3
:1017A000889A85E08A95F1F70000289885E08A9567
:1017B000F1F70000299885E08A95F1F700002A9852
:1017C00085E08A95F1F700002B9885E08A95F1F77E
:1017D00000005A9885E08A95F1F700005B9885E053
:1017E0008A95F1F70000469885E08A95F1F70000A8
:1017F00080E008950F931F93CF93DF93FC01209A0D
:1018000065E06A95F1F700008FB18095881F882701
:10181000881F8783AF01425F5F4F81E07E9980E040
:10182000DA0117968C9317979F01245E3F4F81E052
:101830007D9980E0D90117968C931797CF018A96EE
:1018400061E07C9960E0DC0117966C931797EF01DB
:10185000E89661E0799960E06F838F010A5B1F4F22
:1018600061E0789960E0D80117966C9317972098FB
:10187000B5E0BA95F1F70000219A65E06A95F1F7B5
:1018800000006FB16095661F6627661F608761E084
:101890007E9960E0DA0118966C93189761E07D9963
:1018A00060E0D90118966C93189761E07C9960E02C
:1018B000DC0118966C93189761E0799960E068876D
:1018C00061E0789960E0D80118966C931897219898
:1018D000B5E0BA95F1F70000229A65E06A95F1F754
:1018E00000006FB16095661F6627661F618761E023
:1018F0007E9960E0DA0119966C93199761E07D9901
:1019000060E0D90119966C93199761E07C9960E0C9
:10191000DC0119966C93199761E0799960E0698709
:1019200061E0789960E0D80119966C931997229834
:10193000B5E0BA95F1F70000239A65E06A95F1F7F2
:1019400000006FB16095661F6627661F628761E0C1
:101950007E9960E0DA011A966C931A9761E07D999E
:1019600060E0D9011A966C931A9761E07C9960E067
:10197000DC011A966C931A9761E0799960E06A87A6
:1019800061E0789960E0D8011A966C931A972398D1
:10199000B5E0BA95F1F70000529A65E06A95F1F763
:1019A00000006FB16095661F6627661F638761E060
:1019B0007E9960E0DA011B966C931B9761E07D993C
:1019C00060E0D9011B966C931B9761E07C9960E005
:1019D000DC011B966C931B9761E0799960E06B8743
:1019E00061E0789960E0D8011B966C931B97529840
:1019F000B5E0BA95F1F70000539A65E06A95F1F702
:101A000000006FB16095661F6627661F648761E0FE
:101A10007E9960E0DA011C966C931C9761E07D99D9
:101A200060E0D9011C966C931C9761E07C9960E0A2
:101A3000DC011C966C931C9761E0799960E06C87DF
:101A400061E0789960E0D8011C966C931C975398DC
:101A5000B5E0BA95F1F700003E9A65E06A95F1F7B6
:101A600000006FB16095661F6627661F658761E09D
:101A70007E9960E0DA011D966C931D9741E07D9997
:101A800040E0F901458721E07C9920E0DC011D96CA
:101A90002C931D9781E0799980E08D8781E078997A
:101AA00080E0F80185873E98F5E0FA95F1F70000AF
:101AB00080E0DF91CF911F910F910895662309F483
:101AC00073C0633E61F1643E40F4613EC1F0623E2A
:101AD000F0F4603E09F04DC00AC0653E81F1653EFC
:101AE00030F1663EA1F1673E09F043C038C09091E5
:101AF000AF01882311F0916039C09E7F37C090916B
:101B0000AF01882311F0926031C09D7F2FC090916A
:101B1000AF01882311F0946029C09B7F27C090916A
:101B2000AF01882311F0986021C0977F1FC090916A
:101B3000AF01882311F0906119C09F7E17C090916A
:101B4000AF01882311F0906211C09F7D0FC090916A
:101B5000AF01882311F0906409C09F7B07C090916A
:101B6000AF01882311F0906801C09F779093AF0177
:101B70000895E0EBF1E020E030E09081882339F037
:101B8000992361F420553E4FF9016083089596171B
:101B900029F420553E4FF901108208952F5F3F4FE1
:101BA00031962630310549F70895E9EBF0E0808160
:101BB0008C7F808388E48093B800089584EA8093C2
:101BC000BC008091BC0087FFFCCF8091B900887F6A
:101BD000883049F08091B900887F803131F0809160
:101BE000B900887F089580E0089580E0089584E931
:101BF0008093BC008091BC0084FDFCCF089580934D
:101C0000BB0084E88093BC008091BC0087FFFCCFC0
:101C10008091B900887F883171F08091B900887F08
:101C2000883249F08091B900887F803431F080910A
:101C3000B900887F089580E0089580E0089524EC3D
:101C40002093BC002091BC0027FFFCCF2091BB005B
:101C5000FC0120838091B900887F803521F080913C
:101C6000B900887F089580E00895E091100284E52E
:101C7000E89FF001112490910F028EE0989FC0011F
:101C80001124E80FF91F80913D02E80FF11DE45582
:101C9000FF4F649180913A0211CFF89481E08093D4
:101CA000E00080E28093D800E9ECF0E010828FE160
:101CB0009EE40197F1F700C000001DBA1092680081
:101CC0001CBC10BE1FBA10927A0010926E001092C7
:101CD0006F0010927100109272001082ECEBF0E035
:101CE000108214B817B81AB81DB810BA108215B8F7
:101CF00018B81BB81EB811BA0C94003F0895809113
:101D00003A0261EEDBDEB1CF8091E80080FFFCCFCC
:101D1000089581E08093D70080EA8093D80082E123
:101D200089BD09B400FEFDCF80E98093D8001092F0
:101D3000E0001092B7018CE08093E200789408955F
:101D40008091B70108958091B701882391F18FB7F1
:101D5000F89493E09093E9009091E4009E5C23E076
:101D60003091E80035FD0EC08FBF8091B701882308
:101D700001F18091E4008917F1F08FB7F894209376
:101D8000E900EECF9091AF019093F1001092F10035
:101D9000E0EBF1E091919093F10091E0E63BF907DF
:101DA000C9F79AE39093E8001092B8018FBF80E0E2
:101DB00008958FEF08958FEF08951F920F920FB639
:101DC0000F9211242F938F939F93EF93FF93809102
:101DD000E1001092E10083FF0FC01092E90091E052
:101DE0009093EB001092EC0092E29093ED0098E05B
:101DF0009093F0001092B70182FF34C08091B70138
:101E0000882381F120910401222361F18091B9019D
:101E10008F5F8093B90190E083709070009711F507
:101E200083E08093E9008091E80085FF1BC08091EA
:101E3000B8018F5F8093B8018217A1F41092B801A6
:101E40008091AF018093F1001092F100E0EBF1E09E
:101E500081918093F10081E0E63BF807C9F78AE3BE
:101E60008093E800FF91EF919F918F912F910F90B8
:101E70000FBE0F901F9018951F920F920FB60F92E2
:101E80001124CF92DF92EF92FF920F931F932F9323
:101E90003F934F935F936F937F938F939F93AF93F2
:101EA000BF93EF93FF93DF93CF930F92CDB7DEB73E
:101EB0001092E9008091E80083FF39C12091F10080
:101EC0003091F1008091F100C82EDD244091F100A5
:101ED000942F80E0C82AD92A0091F10010E04091A7
:101EE000F100942F80E0082B192B6091F100A09154
:101EF000F10082EF8093E800363009F059C08BE1A1
:101F000091E19C0125503040FC0137974591549157
:101F10004C155D05F9F4F9014591549140175107AD
:101F2000C9F42E5F3F4FF901859194912E5F3F4F89
:101F3000F9012491462F50E07A2F60E0462B572B71
:101F40004F3F510519F010F04FEF50E0421750F499
:101F5000242F08C00796295F3F4FF1E18C349F077B
:101F600099F6E5C0AEEF4091E80050E0BA01657027
:101F7000707061157105B9F342FDDCC0322F21325A
:101F800008F030E2AC01632F07C0FA014F5F5F4FEA
:101F9000E491E093F10061506623B9F7830F911D3E
:101FA000231BA093E8002223F1F63032E1F2C2C0F5
:101FB000353049F48EEF8093E800A6DE8C2D8068E2
:101FC0008093E300B7C0393031F5222309F069C0AE
:101FD000C092B7018EEF8093E80041E085E491E183
:101FE0004093E900FC010196E491E093EB00EE23BD
:101FF00069F09C012F5F3F4FFC0184918093EC00BE
:10200000C9010196F90124912093ED004F5F4530FD
:1020100039F78EE141C0383039F4203809F041C039
:1020200073DE8091B70161C03323A9F429836CDE8C
:102030002981223851F40093E9009091EB0081E06E
:1020400095FF80E01092E90001C080E08093F100EC
:102050001092F10068C0313011F0333011F52230A8
:1020600001F5C114D104E9F4402F4F77842F81503A
:102070008430B8F48EEF8093E8004093E900333069
:1020800009F455C089E18093EB0081E090E002C043
:10209000880F991F4A95E2F78093EA001092EA00B0
:1020A00049C00115110509F042C0213A09F5313046
:1020B00089F42ADE8091AF018093F1001092F10043
:1020C000E0EBF1E081918093F10021E0E63BF20743
:1020D000C9F729C0323021F417DE8091040105C010
:1020E000333029F511DE809105018093F1001BC08A
:1020F0002132E9F4393061F48091E80082FFFCCFAD
:102100008091F1008093B6018BEF8093E8000BC0C3
:102110003A3029F4D09204011092B80104C03B3047
:1021200031F4C09205018EEF8093E80003C081E294
:102130008093EB000F90CF91DF91FF91EF91BF91D2
:10214000AF919F918F917F916F915F914F913F914F
:102150002F911F910F91FF90EF90DF90CF900F90F4
:0C2160000FBE0F901F901895F894FFCF51
:06216C0007015B017D018B
:00000001FF
